:0A0000001FC0FECFFDCFFCCFFBCFE9
:10000A00FACFF9CFF8CFF7CFF6CFF5CFF4CFF3CFBA
:10001A00F2CFF1CFF0CFEFCFEECFEDCFECCFEBCFEA
:10002A003F065B4F666D7C077F6F0000000004008F
:10003A00060034000000F894EE27ECBBF1E0FBBFA9
:10004A00EBBFE5BF8DE0A2E0BB27ED938A95E9F708
:10005A0080E092E0A0E6ED930197E9F7E8E3F0E0AB
:10006A0085919591009761F0A591B59105901590AC
:10007A00BF01F00105900D920197E1F7FB01F0CF66
:10008A00EFE5EDBFE2E0EEBFC0EED0E000C0EFEF7B
:10009A00EABBE0E0EBBBEFEFE7BBE0E0E8BBEFEF8A
:1000AA00E4BBE0E0E5BBE1BBEFEFE2BBE0E0E3BFCE
:1000BA00E2BFECBFEFBDEEBDEDBDECBDE7BDE6BDF9
:1000CA00EBBDEABDE9BDE8BDE2BDE5BDE4BDE3BD0A
:1000DA00E9BFE5BFE4BFEAB9E0E8E8B9E0E0E0BFBC
:1000EA00E6B9EDB9E6BF80990AC05FD0E491E09520
:1000FA00E5BB65D067D0EBBB6AD064D0E8BB829918
:10010A0052C044245524E8E5F2E0E415F5050CF460
:10011A004AC07394EAE0E71511F463947724EAE09D
:10012A00E61519F4939466247724E6E0E91519F4A0
:10013A00662477249924819919C02697E72DF0E03F
:10014A00EC83FD833CD0EA83FB8341D0E883F983C7
:10015A00EC81FD813FD005BAEA81FB813BD00BBA25
:10016A00E881F98137D008BA26961DC080990AC05D
:10017A001CD0049005BA23D02DD00BBA28D02AD08F
:10018A0008BA11C0A4E6B0E029D0E72DF0E022D0E9
:10019A0005BA15D01FD00BBA1AD01CD008BAF20172
:1001AA0031962F01B0CF9FCFFFCF772466249924B1
:1001BA0044245524E72DF0E0E65DFF4F0895E62D2F
:1001CA00F0E00895E65DFF4FE491E0950895E92D8A
:1001DA00F0E00895E65DFF4F04900895109639F017
:1001EA00A8958AEF90E00197F1F71197C9F708955A
:00000001FF
