:0600000014C0FECFFDCF8D
:10000600FCCFFBCFFACFF9CFF8CFF7CFF6CFF5CFAE
:10001600F4CFF3CFF2CFF1CFF0CFEFCFEECFEDCFDE
:10002600ECCFEBCFF894EE27ECBBF1E0FBBFEBBFD8
:10003600E5BF8DE0A2E0BB27ED938A95E9F780E066
:1000460092E0A0E6ED930197E9F7EFE5EDBFE2E078
:10005600EEBFC0EED0E000C0E0E0EABBE1E0EBBB03
:10006600E0E0E7BBEFEFE8BBE4BBE0E0E5BBE1BB0C
:10007600E2BBE3BFE2BFECBFEFBDEEBDEDBDECBD45
:10008600E7BDE6BDEBBDEABDE9BDE8BDE2BDE5BD48
:10009600E4BDE3BDE9BFE5BFE4BFEAB9E0E8E8B91E
:1000A600E0E0E0BFE6B9EDB9E6BFB09905C028D0FB
:1000B6002AD0A89828D022C0B19909C021D08FECA7
:1000C6008A95F1F7A8988FEC8A95F1F717C0B2993F
:1000D60009C016D08EE38A95F1F7A8988EE38A9523
:1000E600F1F70CC0B39909C00BD08CE18A95F1F7F2
:1000F600A8988CE18A95F1F701C0A998D6CFFFCFD1
:10010600A89AA99A08958CE492E00197F1F70895C8
:00000001FF
