:1000000019C0FECFFDCFFCCFFBCFFACFF9CFF8CF91
:10001000F7CFF6CFF5CFF4CFF3CFF2CFF1CFF0CFCC
:10002000EFCFEECFEDCFECCFEBCF3F065B4F666D62
:100030007C077F6FF894EE27ECBBF1E0FBBFEBBFD2
:10004000E5BF8DE0A2E0BB27ED938A95E9F780E05C
:1000500092E0A0E6ED930197E9F7EFE5EDBFE2E06E
:10006000EEBFC0EED0E000C02A978AE060E070E00A
:10007000EAE2F0E049D0EFEFEABBE0E0EBBBEFEF04
:10008000E7BBE0E0E8BBE4BBEFEFE5BBE0E0E1BBF2
:10009000EFEFE2BBE0E0E3BFE2BFECBFEFBDEEBDE0
:1000A000EDBDECBDE7BDE6BDEBBDEABDE9BDE8BD1C
:1000B000E2BDE5BDE4BDE3BDE9BFE5BFE4BFEAB92C
:1000C000E0E8E8B9E0E0E0BFE6B9EDB9E6BFE0B3EB
:1000D000EF701E2FE3B3EF700E2F1A3038F4E12FBC
:1000E0000DD0E8BBE02F0AD0E095EBBB1A3020F032
:1000F000E9E7E8BBE6E8EBBBEACFFFCFF0E0DE01E3
:10010000AE0FBF1FEC910895AF93BF93DB01AC0F0F
:10011000BD1F05900D928A95E1F7BF91AF910895AB
:00000001FF
