:1000000022C0FECFFDCFFCCFFBCFFACFF9CFF8CF88
:10001000F7CFF6CFF5CFF4CFF3CFF2CFF1CFF0CFCC
:10002000EFCFEECFEDCFECCFEBCF000000003F06DF
:100030005B4F666D7C077F6F010002002A000200A3
:1000400004002C000000F894EE27ECBBF1E0FBBFAD
:10005000EBBFE5BF8DE0A2E0BB27ED938A95E9F702
:1000600080E092E0A0E6ED930197E9F7E8E3F0E0A5
:1000700085919591009761F0A591B59105901590A6
:10008000BF01F00105900D920197E1F7FB01F0CF60
:10009000EFE5EDBFE2E0EEBFC0EED0E000C02A9792
:1000A0008AE060E070E0EEE2F0E064D010E000E0B2
:1000B000EFEFEABBE0E0EBBBEFEFE7BBE0E0E8BB74
:1000C000E4BBE5BBE1BBE2BBE3BFE2BFECBFEFBD1E
:1000D000EEBDEDBDECBDE7BDE6BDEBBDEABDE9BDE6
:1000E000E8BDE2BDE5BDE4BDE3BDE9BFE5BFE4BFFA
:1000F000EAB9E0E8E8B9E0E0E0BFE6B9EDB9E6BFAB
:10010000809902C0E89401C0689420F821FE02C0E2
:1001100020FE01C00DC0F20131962F01E3E6F0E0B0
:10012000E415F50514F444245524A8E2B0E066D0A3
:1001300021FC02C020FC01C003C0A8E2B0E05ED0F8
:10014000D201EAE0F0E039D01E2FD201EAE0F0E07F
:1001500039D00E2FE12F08D0E8BBE02F05D0EBBB44
:1001600020FA21F8CDCFFFCFF0E0DE01AE0FBF1FA8
:10017000EC910895AF93BF93DB01AC0FBD1F0590C9
:100180000D928A95E1F7BF91AF910895F195E195B0
:10019000F04008950024112490E1AA0FBB1F001C19
:1001A000111C0E1A1F0A18F40E0E1F1E01C0A160AA
:1001B0009A9599F7FD01D001089512D0EBDF0EF466
:1001C000E5DF0895E894B7FF04C0B195A195B0406C
:1001D0006894F7FDDBDFDEDFFD010EF4D7DF089565
:1001E000E894F7FF02C0D2DF6894B7FF06C0B1956C
:1001F000A195B04000F8039400FA0895109639F0E4
:10020000A8958AEF90E00197F1F71197C9F7089543
:00000001FF
