:020000001DC021
:10000200FECFFDCFFCCFFBCFFACFF9CFF8CFF7CFA2
:10001200F6CFF5CFF4CFF3CFF2CFF1CFF0CFEFCFD2
:10002200EECFEDCFECCFEBCF0000000001000200DD
:100032002A00020004002C000000F894EE27ECBB1A
:10004200F1E0FBBFEBBFE5BF8DE0A2E0BB27ED9384
:100052008A95E9F780E092E0A0E6ED930197E9F74F
:10006200EEE2F0E085919591009761F0A591B5914E
:1000720005901590BF01F00105900D920197E1F7EF
:10008200FB01F0CFEFE5EDBFE2E0EEBFC0EED0E066
:1000920000C0E0E0EABBEBBBE7BBE8BBEFEFE4BBD1
:1000A20070D0E0E0E1BBE2BBE3BFE2BFECBFEFBD7B
:1000B200EEBDEDBDECBDE7BDE6BDEBBDEABDE9BD04
:1000C200E8BDE2BDE5BDE4BDE3BDE9BFE5BFE4BF18
:1000D200EAB9E0E8E8B9E0E0E0BFE6B9EDB9E6BFC9
:1000E200B19B4CC0B09902C0E89401C0689421F859
:1000F20020FC02C021FC01C003C0F20131962F0195
:1001020021FA20F8A0EEB0E05FD0EF5FFF4F6F4F13
:100112007F4F5FD0A091E000B091E1008091E200BA
:100122009091E300AE38E3E0BE07E0E08E07E0E046
:100132009E0718F1E1E0F0E04E165F0614F024D0BD
:100142000CF402C0E1E025D01FD014F427D00CF447
:1001520002C0E2E01ED022D014F425D00CF402C07A
:10016200E4E017D020D02CF4EEEAF1E0E415F50536
:100172000CF402C0E8E00DD01BD001C019D0B0CF02
:10018200FFCFE0E0E5BB0895EBE1F0E0E415F50513
:100192000895E5BBA0E5B0E021D0F3CFEBE4F0E0B9
:1001A200E415F5050895E8ECF0E0E415F505089589
:1001B200E0E0E093E000E093E100E093E200E0930E
:1001C200E300442455240895ED91FD916D917D91B4
:1001D20008957E936E93FE93EE930895109639F0F0
:1001E200A8958AEF90E00197F1F71197C9F7089562
:00000001FF
