:0E0000001EC0FECFFDCFFCCFFBCFFACFF9CF55
:10000E00F8CFF7CFF6CFF5CFF4CFF3CFF2CFF1CFC6
:10001E00F0CFEFCFEECFEDCFECCFEBCF00003F0622
:10002E005B4F666D7C077F6F010002002A000000A7
:10003E00F894EE27ECBBF1E0FBBFEBBFE5BF8DE024
:10004E00A2E0BB27ED938A95E9F780E092E0A0E667
:10005E00ED930197E9F7E6E3F0E08591959100972E
:10006E0061F0A591B59105901590BF01F001059035
:10007E000D920197E1F7FB01F0CFEFE5EDBFE2E066
:10008E00EEBFC0EED0E000C02A978AE060E070E0DC
:10009E00ECE2F0E04FD010E0E0E0EABBEBBBEFEFBC
:1000AE00E7BBE0E0E8BBE4BBE5BBE1BBEFEFE2BBE7
:1000BE00E0E0E3BFE2BFECBFEFBDEEBDEDBDECBDDA
:1000CE00E7BDE6BDEBBDEABDE9BDE8BDE2BDE5BD00
:1000DE00E4BDE3BDE9BFE5BFE4BFEAB9E0E8E8B9D6
:1000EE00E0E0E0BFE6B9EDB9E6BF809902C0E89462
:1000FE0001C0689420F821FE02C020FE01C007C096
:10010E001F5F1A3008F010E0A8E2B0E01FD021FC0B
:10011E0002C020FC01C003C0A8E2B0E017D0E12F5E
:10012E00F0E0DE01AE0FBF1FEC91E8BB20FA21F824
:10013E00DCCFFFCFAF93BF93DB01AC0FBD1F05909C
:10014E000D928A95E1F7BF91AF910895109639F00F
:10015E00A8958AEF90E00197F1F71197C9F70895E6
:00000001FF
